:400000000040002011000000390900003909000010B500F0B1FCC04670B51222174B1A6000F0D8FF164801F06FFD302000F0EAFE144A154B1A60154C8025ED0525600022AD
:40004000134B1A60134B144A1A60E0214901134A1160134A1A6080221206124B1A60124A124B1A604122124B1A601249082000F0EDFD082000F0D4FD256070BD300010400C
:40008000001BB7000600008004010B400C020B40000301400000014040FF00800403014041FF008008010B404902040000010B4014010140C110000010B572B60122324B50
:4000C0001A7000240FE031486200131959000B00411889881A5AC31858880004104300F025FC0134E4B2012CEDD928490C312848683000F0F1FB274A274B1A60EE22120226
:40010000264B1A609922264B1A6099231B04254A1360254A1360254A1360254A13600323244A1360244A136024490B783C22934314221343DBB20B70214A117816230B43B0
:40014000DBB2137002231F4A13601F491F4A11604A211F4A11601F491F4A1160D82109011E4A11600F211E4A11601E491E4A11601E4A136031211E4A11601E4A1360FFF7A9
:400180004BFF00F0C3FB10BD1C700F40F025000070260000AA00000800000240000302400007024010500F4040500F4050500F4070500F402000104000800F4001700F40E7
:4001C00000700F400000044031002400080004400001044018061800080104400803044000040440920400000804044000070440080704401807044010B5064C2378002B38
:4002000007D1054B002B02D0044800E000BF0123237010BD500100200000000058250000084B10B5002B03D00749084800E000BF07480368002B00D110BD064B002BFBD01D
:400240009847F9E7000000005401002058250000C00000200000000010B50C4B1A780132D2B21A705A780132D2B25A705B78DBB2022B02D9002001F05BFB044B1B78DBB26D
:40028000022B02D9002001F073FB10BD6C01002010B501F065FB43425841C0B201F054FB10BDC04610B5662802D078280CD011E000F032F9040000F029F9030022000A4969
:4002C0000A4801F025FD0AE007220949074801F00DFD04E007220749044801F007FD034801F01AFB10BDC0465C250000CC010020742500007C25000010B501F02DFA00287B
:4003000001D0002400E0012401F02EFA002800D1023401F031FA002800D1043401F034FA002800D10834002C00D10134200010BD70B562B6FFF7E0FF0E4CA07001F040FA14
:40034000A2780D4D0D49280001F0E2FC280001F0E3FA002001F0F8FAA178042000F026F901F060FB064801F0C1FB064801F08EFB70BDC0466C010020CC0100208425000012
:40038000910200005902000070B5040000220A4B5A70012001F0CCFA084D22000849280001F0B6FC280001F0B7FA102C02D1012001F0CAFA70BDC0466C010020CC0100201E
:4003C0009425000010B5FFF7B3FF00F09FF8012809D0002802D0022820D022E0012000F089F8002421E0184800F04EFA041E0AD1012001F0BDFA0022144B1A701449124861
:4004000000F028F8040000F087F8022802D100F071F80AE0012000F06DF806E0012000F069F8002000F066F82124002C02D0E0B2FFF7AAFF01F0DAF90028C6D001F052FA8A
:40044000C0B2FFF72FFFC0E73C0200206C01002030020020F0B585B004000D0000F098F80600200000F092F80390200000F08CF8070033041E0CF02E0BD0F52E10D0002E3E
:4004800026D1200000F026FA022823D100F038F823E0134801F040FA00F026F820261CE0200000F055F8002801D0002600E001260C4801F031FAA37900963A00039928005B
:4004C00000F030F8280000F0BDF8061E04D104E0032602E0112600E00126300005B0F0BDA0250000B02500000022014B1A7070476F010020014B18707047C0466F01002065
:40050000014B18707047C046C4000020014B18787047C0466F010020014B18787047C046C400002070B504001E00012000F012F820800823A370E51CF621280000F018F820
:400540002418E670421C0499280000F023F870BD8079704780028023DB0018408901403B194001433F200240114308007047C04610B50400017000F08BF8607000F082F843
:40058000A070032010BDC0464079704700797047C078704710B50B0E8354531C0C14C454931C0C12C4540332815410BDF8B504000D0001F011F80F2020401A4E30603F21EF
:4005C0002940194B1960194C00252570800108434005E060164FA760164B1B686360200000F0C4FE01232370E560A760124B1B686360200000F0BAFE022323703368DB06BE
:40060000FC22D2041343E360A7600C4B1B686360200000F0ABFE00F0A5FD09491D2000F015FBF8BD480200205C0200204C020020FFFF1F80A0002F40C0002F40E0002F407A
:400640003507000010B586B0002815D0038802AC02930023237163718278A271E3716B460593C11C0822684601F040FB200000F0C9FF002802D102E0022000E0012006B0C4
:4006800010BDC046014B18787047C0465C020020014B18787047C04648020020104B1878C0B2002819D15A78D2B29B78DBB29A4205D20B4A93785078181AC0B20EE0084B28
:4006C0005A78D2B29B78DBB29A4207D9044A93785078181A1030C0B200E010207047C04670010020124A93780133DBB293709378DBB20F2B02D900220D4B9A700C4B1B789F
:40070000002B0BD00A4A53780133DBB253705378DBB20F2B02D90022054B5A70044A537891785B1A59424B41DBB213707047C0467001002070B580225201444B1A60444B99
:400740001B68DA0706D49A0706D45A0706D41B0706D406E0002404E0012402E0022400E003243C4B9A78D2B264013B4B9C4664442368DB0202D46168490D02E06168C908FC
:4007800089B2364B500082189000C152314A9178C9B22068000C0F2528404D0069188D005D19A8709178C9B2A5682D0E4800411888001818C5709178C9B2A068000CC0B274
:4007C0004D0069188D005D1928719178C9B2A068000AC0B24D0069188D005D1968719178C9B2A568EDB2480041188800181885719178C9B2E5682D0E4800411888001818F9
:40080000C5719178C9B2E068000CC0B24D0069188D005D1928729178C9B2E068000AC0B24D0069188D005D1968729278D2B2E068C0B251008A1891005B189872FFF752FF4A
:40084000226801231343236070BDC04600002F4008002F4070010020A0002F406002002010B5FFF71BFF00280BD0064A53780133DBB253705378DBB20F2B02D90022014B64
:400880005A7010BD7001002010B582B0041E17D0FFF704FF6B46D87107331B78002B11D00A4B5B78DBB25A00D3189900084B59180C22200001F01AFAFFF7D2FF002002E0D1
:4008C000022000E0022002B010BDC046700100206002002000797047F0B50025002711E0BB00C658F3B2FF22964308E06A008A181478A419527822700135013BDBB2002BEF
:40090000F4D101370D2FEBD9F0BDC0460323044A1360044A13600022034B1A607047C0463000304030003140000E3F4010B50A00002101F0E4F910BD10B501F0ABF903689A
:400940000C2B00D1FEE7FEE710B50300084A1068C318084A9A1A802A02DC054A136005E001F098F90C2303600120404210BDC046C80000202803002070B50F4E0F4D13E075
:4009800029686B68AC68002202E001C901C30432A242FAD1E868002202E0002102C304328242FAD11035013E002EE9D101F078F9FFF708FDFEE7C04601000000FC28000070
:4009C00010B50E4A136801218B43136000230AE0032B03D89A000A49505800E009489900094A885001332F2BF2D9FFF765FB034A116801230B43136010BDC04600001040DF
:400A0000000000003909000000000020074B1B78272B05D8064B1B78DBB2064A136004E0054B1B78DBB2034A1360704702F3FF0F42F3FF0F20FF0B40C1F1FF0F00230AE0C4
:400A4000204A12683F210A401F49C95C8A4201D1033303E001332D2BF2D903231B4A12781B2A16D8302B05D1194B1B78DBB2194A136006E0182B04D1174B1B78DBB2154A9B
:400A8000136016490B681F229343173A13430B6016E0302B05D1124B1B78DBB20D4A136006E0182B04D10F4B1B78DBB2094A13600A4A13681F218B430B4909780B431360A9
:400AC0007047C0462CFF0B401027000002F3FF0F3FF3FF0F28FF0B403EF3FF0F34FF0B40C3F1FF0FC2F1FF0FC0F1FF0F00230AE00D4A12683F210A400C49C95C8A4201D138
:400B0000033303E001332D2BF2D9032308490868084A02400A60084A944663441B78DBB2064A13607047C0462CFF0B401027000000002240FFFFFFBF4DF3FF0F28FF0B4062
:400B4000034B18688023DB05184000D0012070470000224010B50B4A136801218B431360094B1A68094B1A60094A12685A60FFF765FFFFF74BFF074A116802230B43136055
:400B800010BDC04650000C4034FF0B407401002020FF0B4024002C4030B500230AE0134A12683F210A401249C95C8A4201D1033303E001332D2BF2D903230E490A680220A7
:400BC00082430A600C4C21681F2291430B4805682A400A4322604168094A1160094A944663441B78DBB2084A136030BD2CFF0B401027000024002C4034FF0B407401002074
:400C000020FF0B404DF3FF0F28FF0B40034B1B680220184000D001207047C04624002C401F2318401E3B8340014A13607047C04600E100E01F2318401E3B8340014A13609B
:400C40007047C04680E100E001BE704770B504000D001F2802D90020FFF7F6FF1034A40080239B059C4664442068256070BDC04670B504000E00032902D90020FFF7E4FF71
:400C80001F2C02D90020FFF7DFFF03252540ED00063500F042FFA408A400074B9C46644421680323AB4099430B003100A9401943216000F036FF70BD00E400E010B50400B1
:400CC00006E0084B586800F01FFF074B9C46644480231B029C42F4D8024B9868604300F013FF10BDCC0000200080FFFF70B582B000F090F9002862D000F00FFF0500314AD6
:400D0000116801230B43136000230AE02E4A12683F210A402D49C95C8A4201D1033303E001332D2BF2D903230021294A1160294A1268D20606D1274802681F318A431339FA
:400D40000A430260244C2168244A1140244A5A438023DB019C466244D20B013A5205520D0B001343A0225203134323601D4B1B680193302000F0D8FE1B4A13688021C905F7
:400D80000B4313602668194B1E40002407E00120FFF794FF1034A30533430F4A1360EE2CF5D90120FFF78AFFFF239B051E430A4B1E60019A0B4B1A60280000F0B2FE02B0DC
:400DC00070BDC04650000C402CFF0B401027000028FF0B4034FF0B400800224000F800C040420F003000104000002240FFFF3FC010B5034B1B7B584300F086FE10BDC0466A
:400E0000CC000020F0B55F4656464D464446F0B483B0040000F081FE0190FFF791FE002804D0FFF763FE01239A4601E000239A46FFF7ECFE002808D0182C01D0302C07D1FF
:400E4000FFF7AAFE01239B4604E000239B4601E000239B46E61E2D2E74D8464B1B78DBB29C4208D8444B1B78DBB29946434B1B78DBB2984631E0424B1B78DBB29C4208D852
:400E8000404B1B78DBB299463F4B1B78DBB2984623E03E4B1B78DBB29C4208D83C4B1B78DBB299463B4B1B78DBB2984615E03A4B1B78DBB29C4208D8384B1B78DBB29946D2
:400EC000374B1B78DBB2984607E0364B1B78DBB29946354B1B78DBB29846344B9F5D2F2F09D92A2C07D91922314B1A60052000F00BFE192503E02E4B1D683F231D40BD4270
:400F000006D92A4B9A5D2A4B1A60052000F0FCFD254B9C4664442378DBB2264A1360264B4A461A60254B42461A600520FFF760FFBD420AD21D4B9A5D1D4B1A60052000F0CC
:400F4000E3FD02E00020FFF77FFE5346012B01D1FFF7CCFE5B46012B01D1FFF7FBFD019800F0DFFD03B03CBC90469946A246AB46F0BDC04640F3FF0F41F3FF0F42F3FF0F21
:400F800043F3FF0F44F3FF0F45F3FF0F46F3FF0F47F3FF0F48F3FF0F49F3FF0F4AF3FF0F4BF3FF0F4CF3FF0F4DF3FF0F102700002CFF0B4028FF0B401CFF0B4020FF0B401F
:400FC000034B1868C0231B02184000D00120704700010B4010B50D4B1A6801218A431A601A68022082431A60094A10683024A043203C204310601068093CA0430143116066
:401000001A68802109060A431A6010BD00002240000F2240034B1B68002B01DA012000E0002070470000224010B500F076FD044A1368C02109020B43136000F072FD10BD3C
:4010400000010B4010B500F068FD08490A68084B1A408024E40122430A600A6813408022120213430B6000F05CFD10BD00010B40FF3FFFFF70B5050000F04FFD0400FFF708
:401080009FFF002803D0FFF7DDFF012100E0002108482840084A1568084B2B40184310601368012901D1FFF7BFFF200000F039FD70BDC0460404040010020B40FBFBFBFF95
:4010C00010B5244B1B685B0715D5234B5B685B070ED5224B596A042001401F4C62688A4362605A6A82435A629B69002B00D098470420FFF7BFFF174B1B685B0518D5164B90
:401100005B685B0510D5154B596A8022D2001140114842688A434260596A114A0A405A62DB69002B00D098478020C000FFF7A2FF084B1B685B030CD5074B5B685B0304D5B3
:40114000064B1B6A002B00D098478020C002FFF791FF10BD10020B40E000002094010020FFFBFFFF054B1A6801210A431A601B68194201D1012000E00020704704002F404A
:4011800010B50E4A0E4B1A60FFF7ECFF1D20FFF747FD0C4A116801230B431360F0231B0100E0013B002B03D0064A1268D207F8D5002B01D1012000E0002010BD011000007E
:4011C00000002F4010002F4003B2002B0DDB094A1168094B0B400004034313601268074B1340984203D0012002E0022000E000207047C04614002F40FFFF00800000FF7FE4
:40120000002809D10C4B19680C4A0A401A601B68DB040CD501300DE0074B1A68802149010A431A601B680B4203D1012002E0002000E000207047C04614002F40FFEFFFFFE0
:4012400070B5841EE4B20D2C35D88C1EE4B2052C03D9002B31D1012931D1032A31D8904231D3914231D31C4D2C68240AE4B20F26B44320432E68194C3440000204432C60AE
:401280002C686040F0242401204220D1002B00D002234901C9B29200D2B2114319430E4A1368EE2083430B4313601368034099420FD0ED380EE002200CE002200AE0022094
:4012C00008E0022006E0022004E0022002E0012000E0002070BDC04614002F40FFF0FFFF002809D10B4B1A6810218A431A601B6819420BD001300CE0064B1A6810210A43B7
:401300001A601B68194203D1012002E0002000E00020704714002F40002809D10B4B1A6801218A431A601B6819420BD001300CE0064B1A6801210A431A601B68194203D19D
:40134000012002E0002000E00020704714002F40054B18601B681B041B0C984201D0012000E000207047C04604002F4010B503785B01204A944663441F4A41680A431A6023
:4013800003785B01634419681C4A11401C4A44682240914224D182681A6103785B0163441A6981688A421DD1C2685A6103785B0163445A69C1688A4216D1012252429A617E
:4013C00003785B0163449A6901320FD10022DA6103785B016344DB69002B09D0012008E0012006E0012004E0012002E0012000E0002010BDA0002F40800080007F007F0023
:401400007FFF7FFF10B503781B01104A944663440F4A41680A431A6003781B01634419680C4A11400C4A4468224091420AD182685A6003781B0163445A6883689A4203D0FA
:40144000012002E0012000E0002010BD20002F4008008000F7007F00F7FF7FFF70B500240AE063001B199800104B1818FFF7CAFF002805D10134E4B2072CF2D9002500E002
:401480000125002D0BD00FE0230108486030C018FFF76CFF002806D10134E4B200E000240F2CF1D900E00125280070BD40270000002809D10C4B19680C4A0A401A601B68C6
:4014C0009B040CD501300DE0074B1A68802189010A431A601B680B4203D1012002E0002000E000207047C04614002F40FFDFFFFF10B580221206344B1A60344A1368012112
:401500008B431360C8231B0200E0013B002B03D02E4A1268D207F8D4002B4AD01D20FFF789FB2B491D20FFF791FB03211D20FFF79FFB1F20FFF748FE00281AD1FFF760FEAF
:40154000002818D1FFF7B4FF002816D10023022203210430FFF774FE002810D10130FFF7BFFE00280DD1FFF7D7FE00280BD001230AE0012308E0012306E0012304E001238A
:4015800002E0012300E00023002B14D1FFF766FF002812D10F48FFF7DBFE00280FD10B4B1A6807218A431A601B68194209D0013008E0012006E0012004E0012002E0012037
:4015C00000E0002010BDC04600042F4010002F40011600000110000010B5084B1B78002B02D1FFF785FF00E00020002804D10122024B1A70FFF7C4FD10BDC046BC0100207D
:401600007047C046F8B54F464646C0B4040001200023984691E04C4B1B6832041A427AD12379002B01D1002701E08027BF036379002B07D12B01454A944663442268520517
:401640005A6009E080235B031F432B013F4A944663442268D2005A60A379072B03D81B041F43B94603E080231B031F43B946E379002B03D004234A461A43914600232AE0F8
:40168000032B13D92801324A94466044026894465907CA1AD1003831FF228A4067469743E268D25C8A403A43026012E02801274A94466044826894465907CA1AD10018316C
:4016C000FF228A4067469743E268D25C8A403A4382600133DBB2A279934201D2072BCFD91D20FFF7A7FA2B01184A94466344194A4F4617431F60227A002A04D01968032285
:401700000A431A6003E0196801220A431A601D20FFF786FA00207600F6B2002807D00135EDB201E001260025072D00D873E7002806D043460133DBB298464346022BF1D996
:401740000CBC90469946F8BD08002F4020002F402C002F4008008000024B1868C00801231840704704040440024B1868800801231840704704040440024B186840080123ED
:401780001840704704040440024B1B68012018407047C0460404044010B500F091F810BD10B500F039F810BD10B5044A1368802109060B431360FFF7EFFF10BD00002740A7
:4017C00010B5064B1B78002B04D1FFF7E9FF0122024B1A70FFF7E8FF10BDC046BE010020014B18687047C04640032740024B1B681F2018407047C04608032740044B1B683E
:401800001F221340082BF9D0024B18607047C0460802274040022740154A164B1A600023154A13601549164A1160164A16490A6007201649086016490B6006381549086039
:4018400015490A60154A13600421154A1160154A1360154A1360154A1360154A1360154A1360154A13601268144B1A807047C0460B000002000027404000274001000A0097
:40188000480027400700008000032740040327401003274044002740000227400402274050002740880E2740C80E2740480F2740080F2740C80F2740880F2740C0010020D5
:4018C00005490B68F0229343603A13430B60034B1A88034B1A60704700070240C0010020880F274010B5FFF781FF002802D0FFF777FF01E0064B1868064A1368D8218900AD
:4019000011601B02D82292021340184310BDC04640032740C00F274070B50500002402E0FFF76CFF0134285D0028F9D170BDC04604490A68D2B202239A434000184010438A
:40194000086070470001044004490A68D2B240239A438001184010430860704700010440024B186880090123184070470401044004490A68D2B208239A43C0001840104368
:401980000860704700010440034A117880235B420B43DBB21370704774000F40014B18707047C04685000F40014B1878C0B2704765000F40014B18807047C04648100F406F
:4019C000014B188880B2704788100F40014B18807047C04608100F4010B501E0FFF7F0FFFFF7E2FF0307F9D410BDC04610B50B4C2000FFF7DFFF2000FFF7E8FF00F08DF895
:401A0000074A117810230B43DBB2137000F089F8FFF7E2FF0120FFF7C1FF10BD6506000095000F4010B5064B1B78002B04D1FFF7DDFF0122024B1A70FFF7A6FF10BDC0461D
:401A4000C2010020014B58647047C0460000002010B5040000F061F8044A1168044B0B40A4031C43146000F05CF810BD00E400E0FF3FFFFF0222014B1A60704700E100E03E
:401A80000222014B1A60704780E100E010B50400FFF7F6FF2000FFF7D5FF0320FFF7D8FFFFF7E8FF10BDC046014B18647047C0460000002010B5040000F02FF8044A1368B8
:401AC000C0218B43A4011C43146000F02AF810BD00E400E00122014B1A60704700E100E00122014B1A60704780E100E010B50400FFF7F6FF2000FFF7D7FF0320FFF7DAFF48
:401B0000FFF7E8FF10BDC0460230800803D00138FDD1C046C046C0467047EFF3108072B6704780F31088704770B50400FFF7F5FF0500102C05D8104A136803218B4313601A
:401B400016E0202C07D80C490B6803229343023A13430B600CE0302C07D807490B6803229343013A13430B6002E00020FFF76CF82800FFF7D6FF70BD30001040002243083A
:401B80008B4274D303098B425FD3030A8B4244D3030B8B4228D3030C8B420DD3FF22090212BA030C8B4202D31212090265D0030B8B4219D300E0090AC30B8B4201D3CB037F
:401BC000C01A5241830B8B4201D38B03C01A5241430B8B4201D34B03C01A5241030B8B4201D30B03C01A5241C30A8B4201D3CB02C01A5241830A8B4201D38B02C01A5241AA
:401C0000430A8B4201D34B02C01A5241030A8B4201D30B02C01A5241CDD2C3098B4201D3CB01C01A524183098B4201D38B01C01A524143098B4201D34B01C01A52410309B7
:401C40008B4201D30B01C01A5241C3088B4201D3CB00C01A524183088B4201D38B00C01A524143088B4201D34B00C01A5241411A00D20146524110467047FFE701B500200E
:401C800000F006F802BDC0460029F7D076E770477047C046014B18687047C046480100200E4B70B500251E000D4CE41AA410A54204D0AB00F35898470135F8E700F00CFE53
:401CC000084B00251E00084CE41AA410A54204D0AB00F35898470135F8E770BDE4280000E4280000E4280000EC280000002310B59A4203D0CC5CC4540133F9E710BD030083
:401D00008218934202D019700133FAE7704700000EB410B59DB002A9029008610B48822488604861012040421FABC881084804CBA400006801938C8100F06EF80023029A72
:401D400013701DB010BC08BC03B01847FFFFFF7F48010020F0B58E6885B007000C00039201939E4243D890238A89DB001A423ED003250969236801985B1A029363695D4346
:401D8000EB0F5D19029B6D1001331B18AB4200D91D00530510D52900380000F037FB061E14D0029A2169FFF7A1FFA289194B134080221343A38112E02A00380000F086FB08
:401DC000061E0CD12169380000F0D4FA0C23402201203B60A38940421343A38117E0029B2661F61826606561019EED1AA560019BB34200D21E0032000399206800F0A5FA67
:401E00000020A3689B1BA36023689E19266005B0F0BDC0467FFBFFFFF0B59FB0029005938B890F0016001B0610D50B69002B0DD1402100F0EBFA38603861002804D10C23A9
:401E4000029A01381360D8E040237B61002306AD6B6120336B761033AB7634002378002B03D1A31B049312D003E0252BF9D00134F4E7A31B320039000298FFF76BFF431C56
:401E800000D1B4E06A69049B944663446B612378002B00D1ABE00122002352426A6002A95432521801342B60EB60AB601370AB65534E21780522300000F03CFA002807D03E
:401EC0000123801B83402A68013413432B60EFE72B68DA0604D55322202102A8121811701A0704D553222B2102A81218117022782A2A03D0099B00200A210EE0059A111D10
:401F000012680591002A01DB099204E05242EA60022213432B6001340BE02278303A092A04D84B4301349B180120F6E7002800D0099323782E2B1ED163782A2B0AD1059B60
:401F400002341A1D1B680592002B01DA01235B42079310E000230A201A0001346B6021783039092904D84243013452180123F6E7002B00D00792234E21780322300000F00A
:401F8000D9F9002806D04023801B83402A68013413432B60217806221B48661C297600F0C9F9002812D0194B002B06D10722059B073393430833059314E005AB00933A0064
:401FC000134B2900029800E000BF07E005AB00933A000F4B2900029800F08AF80390039B013304D06B69039A9B186B6135E7BB890B985B0601D5012040421FB0F0BDC046A6
:40200000A2280000A8280000AC28000000000000551D0000F7B5170001938A680B6900900C00934200DA130022003B6043321278002A01D001333B6023689B0602D53B6879
:4020400002333B60062523681D401ED0230043331B785A1E9341226892061CD53020E1184331087021005A1C45310978A2184332023311700FE022000123193201990098AA
:40208000089EB047431C0ED00135E3683A689B1A9D42F0DBDAE72200019943320098089DA847431C02D10120404220E006232068E1683A6803400025042B03D18D1AEB43F5
:4020C000DB171D40A3682269934201DD9B1AED180027BD420AD0220001231A3201990098089EB047431CDED00137F2E70020FEBDF0B58BB006920A00433207930590049278
:402100000A7E0C00109B6E2A00D1ABE011D8632A22D009D8002A00D1B5E0582A00D0C5E045310A70814A4FE0642A1DD0692A1BD0BCE0732A00D1AAE009D86F2A29D0702A18
:4021400000D0B3E0202209680A43226037E0752A1FD0782A33D0A9E00E001A684236111D196013683370A4E021681A68080606D4490604D5111D19600023D55E02E0111D2E
:4021800019601568002D3BDA2D23049A6D42137036E021681A68080606D4490604D51568111D1960ADB202E0111D196015685F4B227E039308276F2A1DD00A271BE022002A
:4021C0007821453211705A4A19680392081D226818600D68100602D4500600D5ADB2D30702D520231A4322601027002D03D1202322689A4322602300002243331A7002E024
:402200000A274A4B03936368A360002B09DB0422216891432160002D05D1049E002B11D07BE0002D79D0049E28003900FFF72CFD039B013E5B5C280033703900FFF79EFC95
:40224000051EF1D1082F09D12368DB0706D563682269934202DC3023013E3370049B9B1B23612BE009681A68080607D4490605D5111D19601368A28A1A8004E0111D196086
:40228000136862691A600023049E236116E01A68111D1960166800216268300000F04AF8002801D0801B6060636803E0260042363270012323610023049A1370079B09AAA8
:4022C00000932100069B0598FFF7A4FE431C02D10120404227E02369320006990598079DA847431CF4D0236800259B070FD4099BE068984217DA180015E02200012319323E
:4023000006990598079EB047431CE1D00135E368099A9B1A9D42F0DBE9E72600039B42361B7833708EE70BB0F0BDC046B3280000C4280000C9B28218904204D003788B4243
:4023400002D00130F8E70020704710B5884202D98B18984201D3002305E09B1A013A08D3995C8154FAE7934203D0CC5CC4540133F9E710BD70B50500002944D00C1F236885
:40238000002B00DAE418280000F0D8F81E4A13681100002B02D16360146031E0A3420DD92268A018834203D118685B688218226063600C6024E0A24203D813005A68002A04
:4023C000F9D11E689819A0420BD12168711858181960824214D110685268411819605A600EE0A04202D90C232B6009E021686018824203D1106852684118216062605C604B
:40240000280000F09CF870BDC8010020032370B5CD1C9D43083506000C2D01D20C2501E0002D01DBA94202D90C23336048E0300000F084F8234B1C681A002100002913D0D7
:402440000B685B1B0DD40B2B02D90B60CC181EE08C4202D1636813601AE04B6863600C0016E00C004968E9E7174C2368002B03D1300000F051F820602900300000F04CF8F3
:40248000431C18D00323C41C9C43A0420DD12560300000F054F8200007220B30231D9043C31A0ED05A42E2500BE0211A300000F033F8431CEBD10C233000336000F03FF87A
:4024C000002070BDC8010020C4010020F8B506000C001500002904D11100FFF797FF040018E0002A03D1FFF745FF2C0012E000F027F885420ED929003000FFF787FF071E49
:4025000007D021002A00FFF7F1FB21003000FFF731FF3C002000F8BD002370B5064C050008002360FEF710FA431C03D12368002B00D02B6070BDC0462003002070477047BE
:402540000B1F1A68101F002A04DA891804390B68D018043870470000000000004D6F64653A2025782053746174653A2578200D0A00000000627275680D0A00007768617425
:402580000D0A000044697020416464723A202578200D0A004572726F722025580D0A00000D0A0D0A53544F500D0A0D0A0000000043616E6E6F742053656E64205468617400
:4025C00020446174612054797065210A0D0000004279746525642025782020200000000049443A25782025782025780D0A00000000300F40000800400F400008850DE20185
:402600009850B050405449FF4AFF4BFF4F01501852805A0A5B0B5D995F016040624064406540668068806A806C806E8082019201B001B601BE01C054C5ECC602C807C9FF1B
:40264000CAFFCBFFCD83CE03CF01D018D401D80ADA0ADB0ADC09DD99DF01E040E240E440E540E680E880EA80EC80EE8006800C021E801F804280468048024C024D044F0104
:4026800056805D045E805F017002780A7E209850C010C210D081D218D6D0DE43D608DB04DD905850600A622098509C0AA620AF80D60CD80C6B206F208320DAC0E280A72000
:4026C000A720AF20EE100F0126508301C201C804B250EA050201130101000F4001310F4002330F4034340F4018350F4003360F4009370F4005400F4001410F4001420F402F
:4027000002430F4005440F4002450F4002600F40030405060708090A0B0C0E0F101112131415161718191B1C1D1E1F2021222325262728292A2B2E2F303132333435000036
:40274000000000000800880000000000010000000800880000000000020000000800880000000000030000000800880000000000040000000800880000000000050000007A
:4027800008008800000000000600000008008800000000000700000008008800000000000000000028000000F9FF1F00000020000100000028000000F9FF1F00000020009D
:4027C0000200000028000000F9FF1F00000020000300000000000000000000000000000004000000000000000000000000000000050000000000000000000000000000006C
:40280000060000000000000000000000000000000700000000000000000000000000000008000000000000000000000000000000090000000000000000000000000000007A
:402840000A0000000000000000000000000000000B0000000000000000000000000000000C0000000000000000000000000000000D0000000000000000000000000000002A
:402880000E0000000000000000000000000000000F0000000000000000000000000000004300232D302B2000686C4C006566674546470030313233343536373839414243F6
:4028C000444546003031323334353637383961626364656600000000F8B5C046F8BC08BC9E46704721020000C1090000F8B5C046F8BC08BC9E467047F901000010290000FB
:40290000C000002090000000D80100000000000000000000FF00000028030020010000000000204E409C000028000000005A6202F0000000040404000000000000000000D7
:40294000000000000000000000000000000000000000000000000000A02800000000000000000000000000000000000000000000000000000000000000000000000000008F
:40298000000000000000000000000000000000000000000000000000E80000200000000000000000000000000000000000000000000000000000000000000000000000000F
:4029C00000000000000000000000000000000000000000000000000000000000000000000000000000000000000000000000000000000000000000000000000000000000D7
:402A00000000000000000000000000000000000000000000000000000000000000000000000000000000000000000000000000000000000000000000000000000000000096
:402A40000000000000000000000000000000000000000000000000000000000000000000000000000000000000000000000000000000000000000000000000000000000056
:402A80000000000000000000000000000000000000000000000000000000000000000000000000000000000000000000000000000000000000000000000000000000000016
:020000040001F9
:0200000490303A
:02000000079F58
:0200000490402A
:4000000000000000000000000000000000000000000000000000000000000000000000000000000000000000000000000000000000000000000000000000000000000000C0
:0200000490501A
:0C0000000002100C11A000011019193FA3
:0200000490600A
:0100000001FE
:00000001FF